{
  "contractName": "DappToken",
  "abi": [
    {
      "constant": true,
      "inputs": [],
      "name": "totalSupply",
      "outputs": [
        {
          "name": "",
          "type": "uint256"
        }
      ],
      "payable": false,
      "stateMutability": "view",
      "type": "function"
    },
    {
      "inputs": [],
      "payable": false,
      "stateMutability": "nonpayable",
      "type": "constructor"
    }
  ],
  "bytecode": "0x6080604052348015600f57600080fd5b50620f4240600081905550607b806100286000396000f3fe6080604052348015600f57600080fd5b506004361060285760003560e01c806318160ddd14602d575b600080fd5b60336049565b6040518082815260200191505060405180910390f35b6000548156fea165627a7a7230582023d64ad45d97215bb7eadd636b8f320822f56a536a365f142f604bf6610c0de30029",
  "source": "pragma solidity >=0.4.21 <0.6.0;\n\ncontract DappToken{\n\n\t//Constructor\n\n\n\t//Set the total number of token\n\n\t//Read the the total number of  token\n\n\t//declaring state variable\n\t//for state variable getter function is auto generated by solidity\n\tuint256 public totalSupply;\n\n\n\tconstructor() public \n\t{\n\t\t//state variable :it accessible to entire contracts;\n\t\ttotalSupply = 1000000;\n\t}\n}",
  "sourcePath": "/home/sonish/Desktop/MeroToken/contracts/MeroToken.sol",
  "compiler": {
    "name": "solc",
    "version": "0.5.8+commit.23d335f2.Emscripten.clang"
  },
  "schemaVersion": "3.0.10",
  "updatedAt": "2019-06-09T09:50:44.982Z",
  "devdoc": {
    "methods": {}
  },
  "userdoc": {
    "methods": {}
  }
}